:100000000C942A000C9447000C9447000C94470071
:100010000C9447000C9447000C9447000C94470044
:100020000C9447000C9447000C9417020C94400267
:100030000C9447000C9447000C9447000C94470024
:100040000C9447000C9447000C9447000C94470014
:100050000C94470011241FBECFE5D8E0DEBFCDBF12
:1000600010E0A0E6B0E0EAE7F5E002C005900D92EE
:10007000A636B107D9F720E0A6E6B0E001C01D9290
:10008000AB36B207E1F70E9469020C94BB020C94F4
:1000900000008430C0F46830B0F44130A9F098F426
:1000A00021E001C0220F6A95EAF72095823039F1EC
:1000B000833031F0813039F18AB382238ABB0895CD
:1000C00081B3822381BB089521E001C0220F6A958C
:1000D000EAF7823061F0833031F0813061F08AB329
:1000E000822B8ABB089581B3822B81BB089584B390
:1000F000822B84BB089587B3822B87BB089584B37A
:10010000822384BB089587B3822387BB08958230FE
:1001100049F020F4811541F067BB0895833031F434
:1001200061BB089564BB08956ABB08950895843047
:10013000C0F46830B0F44130A9F098F421E001C077
:10014000220F6A95EAF72095823039F1833031F039
:10015000813039F18BB382238BBB089582B3822324
:1001600082BB089521E001C0220F6A95EAF7823030
:1001700061F0833031F0813061F08BB3822B8BBB27
:10018000089582B3822B82BB089585B3822B85BBF1
:10019000089588B3822B88BB089585B3822385BBDD
:1001A000089588B3822388BB0895823049F020F4F3
:1001B000811541F068BB0895833031F462BB089526
:1001C00065BB08956BBB089508958430A0F4683032
:1001D00090F421E001C0220F6A95EAF7823061F0C5
:1001E000833031F0813061F08BB382278BBB08956F
:1001F00082B3822782BB089585B3822785BB089589
:1002000088B3822788BB089541155105A1F0843039
:1002100090F4683080F4823099F0833079F0813046
:1002200059F486B390E002C0959587956A95E2F7F8
:100230008170FA018083089589B3F4CF80B3F2CF3F
:1002400083B3F0CF6115710571F0823091F030F415
:10025000811559F086B3FB0180830895833021F422
:1002600080B3FB0180830895089589B3FB018083E7
:10027000089583B3FB01808308958FB780688FBF93
:1002800008958FB78F778FBF0895CF93DF9300D0F6
:1002900000D00F92CDB7DEB749835A836B83372FD7
:1002A0007C83282F8D8313BE413098F483B78F7BD6
:1002B00083BF83B7877F83BF8A8182BF89B781600D
:1002C00089BF0F900F900F900F900F90DF91CF91FB
:1002D0000895D1F0423059F1433099F783B78064E3
:1002E00083BF83B7877F83BF743049F13530F1F125
:1002F000253638F780916A00843061F1853009F441
:1003000040C020E02CBFDDCF83B78F7B83BF83B796
:10031000886083BF8B818CBF89B7826089BF0F9053
:100320000F900F900F900F90DF91CF91089583B7AA
:10033000806483BF83B7886083BF7430B9F683B7A6
:100340008F7E83BF83B7806283BF30936A00253678
:1003500008F0B7CF30E0AFEFB0E00E948A0224E6A9
:1003600040E050E00E9499022CBFABCF83B7806180
:1003700083BF83B7806283BF30936A00253608F05D
:10038000A0CF30E0AFEFB0E00E948A0224E640E068
:1003900050E00E94990220952CBF93CF811521F047
:1003A00093B7987F892B83BF089583B7887F83BFD6
:1003B000089582BF08958CBF0895813040F461157F
:1003C000710531F06093680070936900089509F039
:1003D000089561157105E1F36093660070936700FD
:1003E0000895853640F490916A00943029F020E019
:1003F000953079F02CBF0895282F30E0AFEFB0E0B2
:100400000E948A0224E640E050E00E9499022CBF3C
:100410000895282F30E0AFEFB0E00E948A0224E672
:1004200040E050E00E94990220952CBF08951F9251
:100430000F920FB60F9211242F933F934F935F9318
:100440006F937F938F939F93AF93BF93EF93FF939C
:10045000E0916600F0916700309709F00995FF91EF
:10046000EF91BF91AF919F918F917F916F915F912C
:100470004F913F912F910F900FBE0F901F901895A5
:100480001F920F920FB60F9211242F933F934F9309
:100490005F936F937F938F939F93AF93BF93EF93EC
:1004A000FF93E0916800F0916900309709F0099599
:1004B000FF91EF91BF91AF919F918F917F916F913C
:1004C0005F914F913F912F910F900FBE0F901F9012
:1004D000189500D000D00F92CDB7DEB785E0E0E6EA
:1004E000F0E0DE01119601900D928A95E1F741E06E
:1004F00063E081E00E94490049815A816B817C81DF
:100500008D810E94450182E00E94CE0186E40E9416
:10051000F101FCCFA29FB001B39FC001A39F700D5A
:10052000811D1124911DB29F700D811D1124911DFB
:100530000895A1E21A2EAA1BBB1BFD010DC0AA1F24
:10054000BB1FEE1FFF1FA217B307E407F50720F03C
:10055000A21BB30BE40BF50B661F771F881F991FB7
:100560001A9469F760957095809590959B01AC0100
:0A057000BD01CF010895F894FFCFFC
:06057A000200000446002F
:00000001FF
