:100000000C942A000C943C000C943C000C943C0092
:100010000C943C000C943C000C943C000C943C0070
:100020000C943C000C943C000C943C000C943C0060
:100030000C943C000C943C000C94AF000C943C00DD
:100040000C943C000C943C000C943C000C943C0040
:100050000C943C0011241FBECFE5D4E0DEBFCDBF21
:1000600020E0A0E6B0E001C01D92A236B207E1F7A1
:100070000E9459020C945C020C940000CF93DF9311
:1000800000D000D000D0CDB7DEB7242F4983452F54
:100090005A83562F6B837C83382F8D839E83213028
:1000A00010F53E983F98413029F178F1313029F12F
:1000B00050F1513028F5359A90B78C818295880F90
:1000C000807E9F71892B80BF96B1987F8E81892B0E
:1000D00086B9379A0F900F900F900F900F900F9056
:1000E000DF91CF91089599F02230E9F63E9A3F9A38
:1000F0004130D9F63D9A3130D9F6339A5130D8F2A1
:1001000019F73598E1CF3398D4CF3D98CFCF3E9AA9
:100110003F98C9CF883078F4452B462B472B71F098
:1001200097B1987F982B97B9349A369A86B184B153
:1001300095B1349A08958EEF9FEF08958FEF9FEF5A
:10014000089597B18770987F892B87B9369A08955B
:10015000009721F0809360009093610008951F92B2
:100160000F920FB60F9211242F933F934F935F93EB
:100170006F937F938F939F93AF93BF93EF93FF936F
:1001800084B195B1E0916000F0916100309709F081
:100190000995FF91EF91BF91AF919F918F917F91C1
:1001A0006F915F914F913F912F910F900FBE0F90E4
:1001B0001F9018958430C0F46830B0F44130A9F035
:1001C00098F421E001C0220F6A95EAF72095823069
:1001D00039F1833031F0813039F18AB382238ABB1F
:1001E000089581B3822381BB089521E001C0220FCD
:1001F0006A95EAF7823061F0833031F0813061F046
:100200008AB3822B8ABB089581B3822B81BB089568
:1002100084B3822B84BB089587B3822B87BB089558
:1002200084B3822384BB089587B3822387BB089558
:10023000823049F020F4811541F067BB0895833086
:1002400031F461BB089564BB08956ABB08950895B5
:100250008430C0F46830B0F44130A9F098F421E063
:1002600001C0220F6A95EAF72095823039F1833078
:1002700031F0813039F18BB382238BBB089582B387
:10028000822382BB089521E001C0220F6A95EAF71C
:10029000823061F0833031F0813061F08BB3822B9A
:1002A0008BBB089582B3822B82BB089585B3822BCA
:1002B00085BB089588B3822B88BB089585B38223BC
:1002C00085BB089588B3822388BB0895823049F0A6
:1002D00020F4811541F068BB0895833031F462BB8E
:1002E000089565BB08956BBB089508958430A0F40C
:1002F000683090F421E001C0220F6A95EAF782305D
:1003000061F0833031F0813061F08BB382278BBB99
:10031000089582B3822782BB089585B3822785BB67
:10032000089588B3822788BB089541155105A1F02F
:10033000843090F4683080F4823099F0833079F022
:10034000813059F486B390E002C0959587956A95FF
:10035000E2F78170FA018083089589B3F4CF80B306
:10036000F2CF83B3F0CF6115710571F0823091F057
:1003700030F4811559F086B3FB01808308958330F2
:1003800021F480B3FB0180830895089589B3FB01B4
:100390008083089583B3FB01808308958330B1F097
:1003A000843019F0853009F10895643069F16530C1
:1003B00009F443C0663009F447C06730A9F785B730
:1003C000846085BF85B7886085BF0895643019F162
:1003D000653099F0663031F1673031F785B781606B
:1003E00085BF85B7826085BF0895663011F167309B
:1003F000D9F684B7806484BF089585B7816085BFCE
:1004000085B78D7F85BF089585B78B7F85BF85B7FD
:10041000877F85BF089585B78E7F85BF85B78D7F20
:1004200085BF089585B78E7F85BF85B7826085BFFC
:10043000089584B78F7B84BF089585B7846085BF96
:1004400085B7877F85BF089585B78B7F85BF85B7C3
:10045000886085BF0895833049F0843019F0853075
:1004600049F008958BB780688BBF08958BB780647F
:100470008BBF08958BB780628BBF0895833049F09E
:10048000843019F0853049F008958BB78F778BBF92
:1004900008958BB78F7B8BBF08958BB78F7D8BBFF4
:1004A00008958FB780688FBF08958FB78F778FBFFC
:0C04B000089580E090E00895F894FFCFDC
:00000001FF
