:100000000C942A000C943C000C943C000C943C0092
:100010000C943C000C943C000C943C000C943C0070
:100020000C943C000C943C000C943C000C943C0060
:100030000C947C050C943C000C943C000C943C000B
:100040000C943C000C943C000C943C000C943C0040
:100050000C943C0011241FBECFE5D8E0DEBFCDBF1D
:1000600020E0A0E6B0E001C01D92A236B207E1F7A1
:100070000E94A5050C94E4050C940000CF92DF9239
:10008000EF92FF921F93CF93DF9300D000D0CDB7B4
:10009000DEB7F82E192FE62E6A0129833A8340E055
:1000A00064E081E00E94410484E00E94730587EFD0
:1000B0000E94730541E064E081E00E94410440E059
:1000C00064E081E00E94410488E80E94730580E0BA
:1000D0000E9473058B8341E064E081E00E9441044B
:1000E00040E064E081E00E94410488E00E947305E2
:1000F0008B818F770E94730541E064E081E00E946C
:10010000410440E064E081E00E94410484E90E94EF
:10011000730580E00E9473058B8341E064E081E019
:100120000E94410440E064E081E00E94410484E1D7
:100130000E9473058B8180680E94730541E064E032
:1001400081E00E94410440E064E081E00E944104BB
:1001500082E00E94730580E00E94730541E064E044
:1001600081E00E944104FB821C838B819C818E0D67
:10017000911D7C01EB81FC811191EB83FC8340E0BC
:1001800064E081E00E94410482E10E947305812FB6
:100190000E94730541E064E081E00E9441048B818C
:1001A0009C81E816F90631F740E064E081E00E94A6
:1001B000410482E00E9473058CE00E94730541E0D7
:1001C00064E081E00E94410440E064E081E00E943C
:1001D00041048AE90E94730580E00E9473058B83C5
:1001E00041E064E081E00E94410440E064E081E09D
:1001F0000E9441048AE10E9473058B8180680E94FD
:10020000730541E064E081E00E944104E0EDF7E025
:10021000EB83FC8340E064E081E00E94410488E8D5
:100220000E94730580E00E947305182F41E064E08E
:1002300081E00E9441048B819C8101978B839C8388
:10024000892B09F4ABC0812F817321F340E064E076
:1002500081E00E9441048AE90E94730580E00E94C7
:1002600073058B8341E064E081E00E94410440E03B
:1002700064E081E00E9441048AE10E9473058B8161
:100280008F770E94730541E064E081E00E944104A1
:1002900040E064E081E00E9441048CE80E94730524
:1002A00080E00E9473058B8341E064E081E00E945E
:1002B0004104FB81FB7109F093C0117040E064E0E0
:1002C00081E00E94410484E90E94730580E00E945D
:1002D0007305F82E41E064E081E00E94410440E0B3
:1002E00064E081E00E94410488E90E94730580E097
:1002F0000E9473058B8341E064E081E00E94410429
:100300009B8197709B838F2D90E0EB81E11138C02A
:10031000880F991F880F991F880F991FE981FA810B
:1003200080839183C982DA828F2D813198F180E1B7
:10033000C80ED11C40E064E081E00E94410482E9E3
:100340000E94730580E00E947305F82E41E064E08E
:1003500081E00E944104E981FA81F192E983FA8304
:10036000CE16DF0639F7812F0F900F900F900F9068
:10037000DF91CF911F91FF90EF90DF90CF90089584
:100380000197880F991F880F991F880F991F8E0F4B
:10039000911DC4CFF110CCCF81E0CACF40E064E022
:1003A00081E00E9441048AE90E94730580E00E9476
:1003B0007305898341E064E081E00E94410440E0EC
:1003C00064E081E00E9441048AE10E947305898112
:1003D0008F770E94730541E064E081E00E94410450
:1003E00012E0C1CFCF93DF930F92CDB7DEB741E0DC
:1003F00063E081E00E94F30341E063E081E00E945A
:10040000410441E064E081E00E94F30341E064E0E4
:1004100081E00E94410440E064E081E00E944104E8
:1004200082E00E9473058FE00E94730541E064E062
:1004300081E00E94410440E064E081E00E944104C8
:1004400084E50E9473058DE80E94730541E064E035
:1004500081E00E94410440E064E081E00E944104A8
:1004600086E50E9473058EE30E94730541E064E017
:1004700081E00E94410440E064E081E00E94410488
:100480008AE50E9473058EE10E94730541E064E0F5
:1004900081E00E94410440E064E081E00E94410468
:1004A00088E50E94730580E00E94730541E064E0E6
:1004B00081E00E94410440E064E081E00E94410448
:1004C0008AE20E94730580E40E94730541E064E0C3
:1004D00081E00E94410440E064E081E00E94410428
:1004E00082E20E9473058DE30E94730541E064E09F
:1004F00081E00E94410440E064E081E00E94410408
:1005000088EA0E94730580E00E947305898341E0B8
:1005100064E081E00E9441048981837021F00F90A2
:10052000DF91CF91089540E064E081E00E944104B2
:1005300088EA0E94730580E00E947305898341E088
:1005400064E081E00E94410440E064E081E00E94B8
:10055000410488E20E947305898183600E947305CB
:1005600041E064E081E00F90DF91CF910C94410471
:100570000F931F93CF93DF9300D000D0CDB7DEB79A
:100580008C0140E064E081E00E9441048AE10E9425
:10059000730587E00E94730541E064E081E00E94FA
:1005A000410482E58B839E012F5F3F4FAE014D5F7B
:1005B0005F4F61E0CA010E943E00811104C0898141
:1005C0009A81409751F082E00F900F900F900F901A
:1005D000DF91CF911F910F91089540E064E081E099
:1005E0000E9441048AE10E94730580E00E94730525
:1005F00041E064E081E00E94410483E9F8018083E6
:1006000080E281839E012F5F3F4FA80162E0C80115
:100610000E943E008111D8CFF80198012C5F3F4F16
:1006200091918927E217F307D9F791E0F801248126
:10063000281719F0892F880FC7CF90E0FBCFCF92F2
:10064000DF92FF920F931F93CF93DF9300D000D0E0
:1006500000D0CDB7DEB780E589831A8240E064E040
:1006600081E00E9441048AE80E94730580E00E94B4
:100670007305182F41E064E081E00E94410440E0EE
:1006800064E081E00E9441048AE00E947305812FAA
:100690008B7F0E94730541E064E081E00E94410489
:1006A00040E064E081E00E94410484E90E94730517
:1006B00080E00E947305182F41E064E081E00E9411
:1006C000410440E064E081E00E94410484E10E9432
:1006D0007305812F80680E94730541E064E081E02A
:1006E0000E9441048E010F5F1F4F6E0183E0C80E10
:1006F000D11CF801F1908F0140E064E081E00E949C
:10070000410482E10E9473058F2D0E94730541E030
:1007100064E081E00E9441040C151D0551F740E0A2
:1007200064E081E00E94410482E00E94730583E05E
:100730000E94730541E064E081E00E9441040FEFF4
:1007400010E040E064E081E00E9441048AE80E94F9
:10075000730580E00E947305F82E41E064E081E0BB
:100760000E9441040150104011F0F2FEEACF40E037
:1007700064E081E00E94410484EC0E94730580E003
:100780000E947305182F41E064E081E00E9441045B
:100790001B8340E064E081E00E94410482EC0E94FF
:1007A000730580E00E947305182F41E064E081E04A
:1007B0000E9441041C839E012B5F3F4FAE014F5F9F
:1007C0005F4F64E0CA010E943E000F900F900F90AF
:1007D0000F900F900F90DF91CF911F910F91FF908D
:1007E000DF90CF9008958430C0F46830B0F4413089
:1007F000A9F098F421E001C0220F6A95EAF720954C
:10080000823039F1833031F0813039F18AB382237B
:100810008ABB089581B3822381BB089521E001C082
:10082000220F6A95EAF7823061F0833031F081302F
:1008300061F08AB3822B8ABB089581B3822B81BB7E
:10084000089584B3822B84BB089587B3822B87BB22
:10085000089584B3822384BB089587B3822387BB22
:100860000895823049F020F4811541F067BB089566
:10087000833031F461BB089564BB08956ABB089569
:1008800008958430C0F46830B0F44130A9F098F491
:1008900021E001C0220F6A95EAF72095823039F1F4
:1008A000833031F0813039F18BB382238BBB0895D3
:1008B00082B3822382BB089521E001C0220F6A9592
:1008C000EAF7823061F0833031F0813061F08BB330
:1008D000822B8BBB089582B3822B82BB089585B394
:1008E000822B85BB089588B3822B88BB089585B37E
:1008F000822385BB089588B3822388BB0895823004
:1009000049F020F4811541F068BB0895833031F43B
:1009100062BB089565BB08956BBB0895089584304C
:10092000A0F4683090F421E001C0220F6A95EAF744
:10093000823061F0833031F0813061F08BB38227F7
:100940008BBB089582B3822782BB089585B382272B
:1009500085BB089588B3822788BB0895411551054A
:10096000A1F0843090F4683080F4823099F08330C4
:1009700079F0813059F486B390E002C0959587955F
:100980006A95E2F78170FA018083089589B3F4CF04
:1009900080B3F2CF83B3F0CF6115710571F082306F
:1009A00091F030F4811559F086B3FB0180830895EE
:1009B000833021F480B3FB0180830895089589B3C7
:1009C000FB018083089583B3FB01808308950F9317
:1009D0001F93CF93DF93CDB7DEB728970FB6F89468
:1009E000DEBF0FBECDBF042F49835E835A836F8362
:1009F0006B8378877C83182F8D8341E064E081E0EE
:100A00000E94F30341E064E081E00E94410441E080
:100A100065E081E00E94F30340E066E081E00E942F
:100A2000F30341E067E081E00E94F3038E818111CE
:100A30002DC06D9A013081F188F18F81811121C023
:100A40006B988885811118C06A98183048F4E12F96
:100A5000F0E0EA51FA4F0C94DE05709869986898B6
:100A60006E9A28960FB6F894DEBF0FBECDBFDF9109
:100A7000CF911F910F9108958885813031F76A9A3F
:100A8000E4CF8F818130E9F66B9ADBCF8E818130A4
:100A900089F66D98013081F66C9ACFCF6C98CDCFE6
:100AA000709A699A689ADCCF709A6998689AD8CFD8
:100AB000709A699A6898D4CF70986998689AD0CFDC
:100AC0007098699A6898CCCF7098699A689AC8CFDC
:100AD000709A69986898C4CF8FB98EB108956F9A4B
:100AE00008956F9808958FB98EB18FB1089580934E
:100AF00060009093610008951F920F920FB60F92BD
:100B000011242F933F934F935F936F937F938F9312
:100B10009F93AF93BF93EF93FF93E0916000F091A9
:100B20006100309709F00995FF91EF91BF91AF9166
:100B30009F918F917F916F915F914F913F912F91F5
:100B40000F900FBE0F901F901895CDB7DEB7299765
:100B50000FB6F894DEBF0FBECDBF81E089838A83D4
:100B60001B821C828D8341E060E080E00E94F303E1
:100B700040E060E080E00E94410449815A816B813D
:100B80007C818D810E94E7040E94F201CE010696CD
:100B90000E94B80281110CC041E060E00E94410453
:100BA0000E941F03CE0106960E94B8028115A1F390
:100BB00040E060E080E00E944104E8CFEE0FFF1FBC
:100BC0000590F491E02D0994F894FFCF2D055C0574
:0C0BD000600564056805540558055005D3
:00000001FF
